{
	"data": {
		"bytecode": {
			"linkReferences": {},
			"object": "608060405234801561001057600080fd5b50732514895c72f50d8bd4b4f9b1110f0d6bd2c975266000806101000a81548173ffffffffffffffffffffffffffffffffffffffff021916908373ffffffffffffffffffffffffffffffffffffffff1602179055506402540be4006001819055506104af806100806000396000f3fe608060405234801561001057600080fd5b506004361061004c5760003560e01c8063557de3101461005157806363bd1d4a1461005b57806366666aa9146100795780638e15f47314610097575b600080fd5b6100596100b5565b005b610063610135565b60405161007091906102f0565b60405180910390f35b61008161013b565b60405161008e91906102f0565b60405180910390f35b61009f610141565b6040516100ac91906102d5565b60405180910390f35b60006100bf610141565b90508064e8d4a510006100d29190610342565b600281905550600254600160008282546100ec9190610373565b925050819055507f284965be98f2ff7d484a23abe162f7f67cc59d2aea543dd0f356c23eb3230fd48160025460015460405161012a9392919061030b565b60405180910390a150565b60025481565b60015481565b60008060008060008060008054906101000a900473ffffffffffffffffffffffffffffffffffffffff1673ffffffffffffffffffffffffffffffffffffffff1663feaf968c6040518163ffffffff1660e01b815260040160a06040518083038186803b1580156101b057600080fd5b505afa1580156101c4573d6000803e3d6000fd5b505050506040513d601f19601f820116820180604052508101906101e8919061023c565b94509450945094509450839550505050505090565b60008151905061020c81610434565b92915050565b6000815190506102218161044b565b92915050565b60008151905061023681610462565b92915050565b600080600080600060a086880312156102585761025761042f565b5b600061026688828901610227565b9550506020610277888289016101fd565b945050604061028888828901610212565b935050606061029988828901610212565b92505060806102aa88828901610227565b9150509295509295909350565b6102c0816103a7565b82525050565b6102cf816103b1565b82525050565b60006020820190506102ea60008301846102b7565b92915050565b600060208201905061030560008301846102c6565b92915050565b600060608201905061032060008301866102c6565b61032d60208301856102c6565b61033a60408301846102c6565b949350505050565b600061034d826103b1565b9150610358836103b1565b92508261036857610367610400565b5b828204905092915050565b600061037e826103b1565b9150610389836103b1565b92508282101561039c5761039b6103d1565b5b828203905092915050565b6000819050919050565b6000819050919050565b600069ffffffffffffffffffff82169050919050565b7f4e487b7100000000000000000000000000000000000000000000000000000000600052601160045260246000fd5b7f4e487b7100000000000000000000000000000000000000000000000000000000600052601260045260246000fd5b600080fd5b61043d816103a7565b811461044857600080fd5b50565b610454816103b1565b811461045f57600080fd5b50565b61046b816103bb565b811461047657600080fd5b5056fea26469706673582212208ea0a3ca04cc6b1ce56aee32050340b5c405e72f5f4f7870a9038979c25de1a764736f6c63430008070033",
			"opcodes": "PUSH1 0x80 PUSH1 0x40 MSTORE CALLVALUE DUP1 ISZERO PUSH2 0x10 JUMPI PUSH1 0x0 DUP1 REVERT JUMPDEST POP PUSH20 0x2514895C72F50D8BD4B4F9B1110F0D6BD2C97526 PUSH1 0x0 DUP1 PUSH2 0x100 EXP DUP2 SLOAD DUP2 PUSH20 0xFFFFFFFFFFFFFFFFFFFFFFFFFFFFFFFFFFFFFFFF MUL NOT AND SWAP1 DUP4 PUSH20 0xFFFFFFFFFFFFFFFFFFFFFFFFFFFFFFFFFFFFFFFF AND MUL OR SWAP1 SSTORE POP PUSH5 0x2540BE400 PUSH1 0x1 DUP2 SWAP1 SSTORE POP PUSH2 0x4AF DUP1 PUSH2 0x80 PUSH1 0x0 CODECOPY PUSH1 0x0 RETURN INVALID PUSH1 0x80 PUSH1 0x40 MSTORE CALLVALUE DUP1 ISZERO PUSH2 0x10 JUMPI PUSH1 0x0 DUP1 REVERT JUMPDEST POP PUSH1 0x4 CALLDATASIZE LT PUSH2 0x4C JUMPI PUSH1 0x0 CALLDATALOAD PUSH1 0xE0 SHR DUP1 PUSH4 0x557DE310 EQ PUSH2 0x51 JUMPI DUP1 PUSH4 0x63BD1D4A EQ PUSH2 0x5B JUMPI DUP1 PUSH4 0x66666AA9 EQ PUSH2 0x79 JUMPI DUP1 PUSH4 0x8E15F473 EQ PUSH2 0x97 JUMPI JUMPDEST PUSH1 0x0 DUP1 REVERT JUMPDEST PUSH2 0x59 PUSH2 0xB5 JUMP JUMPDEST STOP JUMPDEST PUSH2 0x63 PUSH2 0x135 JUMP JUMPDEST PUSH1 0x40 MLOAD PUSH2 0x70 SWAP2 SWAP1 PUSH2 0x2F0 JUMP JUMPDEST PUSH1 0x40 MLOAD DUP1 SWAP2 SUB SWAP1 RETURN JUMPDEST PUSH2 0x81 PUSH2 0x13B JUMP JUMPDEST PUSH1 0x40 MLOAD PUSH2 0x8E SWAP2 SWAP1 PUSH2 0x2F0 JUMP JUMPDEST PUSH1 0x40 MLOAD DUP1 SWAP2 SUB SWAP1 RETURN JUMPDEST PUSH2 0x9F PUSH2 0x141 JUMP JUMPDEST PUSH1 0x40 MLOAD PUSH2 0xAC SWAP2 SWAP1 PUSH2 0x2D5 JUMP JUMPDEST PUSH1 0x40 MLOAD DUP1 SWAP2 SUB SWAP1 RETURN JUMPDEST PUSH1 0x0 PUSH2 0xBF PUSH2 0x141 JUMP JUMPDEST SWAP1 POP DUP1 PUSH5 0xE8D4A51000 PUSH2 0xD2 SWAP2 SWAP1 PUSH2 0x342 JUMP JUMPDEST PUSH1 0x2 DUP2 SWAP1 SSTORE POP PUSH1 0x2 SLOAD PUSH1 0x1 PUSH1 0x0 DUP3 DUP3 SLOAD PUSH2 0xEC SWAP2 SWAP1 PUSH2 0x373 JUMP JUMPDEST SWAP3 POP POP DUP2 SWAP1 SSTORE POP PUSH32 0x284965BE98F2FF7D484A23ABE162F7F67CC59D2AEA543DD0F356C23EB3230FD4 DUP2 PUSH1 0x2 SLOAD PUSH1 0x1 SLOAD PUSH1 0x40 MLOAD PUSH2 0x12A SWAP4 SWAP3 SWAP2 SWAP1 PUSH2 0x30B JUMP JUMPDEST PUSH1 0x40 MLOAD DUP1 SWAP2 SUB SWAP1 LOG1 POP JUMP JUMPDEST PUSH1 0x2 SLOAD DUP2 JUMP JUMPDEST PUSH1 0x1 SLOAD DUP2 JUMP JUMPDEST PUSH1 0x0 DUP1 PUSH1 0x0 DUP1 PUSH1 0x0 DUP1 PUSH1 0x0 DUP1 SLOAD SWAP1 PUSH2 0x100 EXP SWAP1 DIV PUSH20 0xFFFFFFFFFFFFFFFFFFFFFFFFFFFFFFFFFFFFFFFF AND PUSH20 0xFFFFFFFFFFFFFFFFFFFFFFFFFFFFFFFFFFFFFFFF AND PUSH4 0xFEAF968C PUSH1 0x40 MLOAD DUP2 PUSH4 0xFFFFFFFF AND PUSH1 0xE0 SHL DUP2 MSTORE PUSH1 0x4 ADD PUSH1 0xA0 PUSH1 0x40 MLOAD DUP1 DUP4 SUB DUP2 DUP7 DUP1 EXTCODESIZE ISZERO DUP1 ISZERO PUSH2 0x1B0 JUMPI PUSH1 0x0 DUP1 REVERT JUMPDEST POP GAS STATICCALL ISZERO DUP1 ISZERO PUSH2 0x1C4 JUMPI RETURNDATASIZE PUSH1 0x0 DUP1 RETURNDATACOPY RETURNDATASIZE PUSH1 0x0 REVERT JUMPDEST POP POP POP POP PUSH1 0x40 MLOAD RETURNDATASIZE PUSH1 0x1F NOT PUSH1 0x1F DUP3 ADD AND DUP3 ADD DUP1 PUSH1 0x40 MSTORE POP DUP2 ADD SWAP1 PUSH2 0x1E8 SWAP2 SWAP1 PUSH2 0x23C JUMP JUMPDEST SWAP5 POP SWAP5 POP SWAP5 POP SWAP5 POP SWAP5 POP DUP4 SWAP6 POP POP POP POP POP POP SWAP1 JUMP JUMPDEST PUSH1 0x0 DUP2 MLOAD SWAP1 POP PUSH2 0x20C DUP2 PUSH2 0x434 JUMP JUMPDEST SWAP3 SWAP2 POP POP JUMP JUMPDEST PUSH1 0x0 DUP2 MLOAD SWAP1 POP PUSH2 0x221 DUP2 PUSH2 0x44B JUMP JUMPDEST SWAP3 SWAP2 POP POP JUMP JUMPDEST PUSH1 0x0 DUP2 MLOAD SWAP1 POP PUSH2 0x236 DUP2 PUSH2 0x462 JUMP JUMPDEST SWAP3 SWAP2 POP POP JUMP JUMPDEST PUSH1 0x0 DUP1 PUSH1 0x0 DUP1 PUSH1 0x0 PUSH1 0xA0 DUP7 DUP9 SUB SLT ISZERO PUSH2 0x258 JUMPI PUSH2 0x257 PUSH2 0x42F JUMP JUMPDEST JUMPDEST PUSH1 0x0 PUSH2 0x266 DUP9 DUP3 DUP10 ADD PUSH2 0x227 JUMP JUMPDEST SWAP6 POP POP PUSH1 0x20 PUSH2 0x277 DUP9 DUP3 DUP10 ADD PUSH2 0x1FD JUMP JUMPDEST SWAP5 POP POP PUSH1 0x40 PUSH2 0x288 DUP9 DUP3 DUP10 ADD PUSH2 0x212 JUMP JUMPDEST SWAP4 POP POP PUSH1 0x60 PUSH2 0x299 DUP9 DUP3 DUP10 ADD PUSH2 0x212 JUMP JUMPDEST SWAP3 POP POP PUSH1 0x80 PUSH2 0x2AA DUP9 DUP3 DUP10 ADD PUSH2 0x227 JUMP JUMPDEST SWAP2 POP POP SWAP3 SWAP6 POP SWAP3 SWAP6 SWAP1 SWAP4 POP JUMP JUMPDEST PUSH2 0x2C0 DUP2 PUSH2 0x3A7 JUMP JUMPDEST DUP3 MSTORE POP POP JUMP JUMPDEST PUSH2 0x2CF DUP2 PUSH2 0x3B1 JUMP JUMPDEST DUP3 MSTORE POP POP JUMP JUMPDEST PUSH1 0x0 PUSH1 0x20 DUP3 ADD SWAP1 POP PUSH2 0x2EA PUSH1 0x0 DUP4 ADD DUP5 PUSH2 0x2B7 JUMP JUMPDEST SWAP3 SWAP2 POP POP JUMP JUMPDEST PUSH1 0x0 PUSH1 0x20 DUP3 ADD SWAP1 POP PUSH2 0x305 PUSH1 0x0 DUP4 ADD DUP5 PUSH2 0x2C6 JUMP JUMPDEST SWAP3 SWAP2 POP POP JUMP JUMPDEST PUSH1 0x0 PUSH1 0x60 DUP3 ADD SWAP1 POP PUSH2 0x320 PUSH1 0x0 DUP4 ADD DUP7 PUSH2 0x2C6 JUMP JUMPDEST PUSH2 0x32D PUSH1 0x20 DUP4 ADD DUP6 PUSH2 0x2C6 JUMP JUMPDEST PUSH2 0x33A PUSH1 0x40 DUP4 ADD DUP5 PUSH2 0x2C6 JUMP JUMPDEST SWAP5 SWAP4 POP POP POP POP JUMP JUMPDEST PUSH1 0x0 PUSH2 0x34D DUP3 PUSH2 0x3B1 JUMP JUMPDEST SWAP2 POP PUSH2 0x358 DUP4 PUSH2 0x3B1 JUMP JUMPDEST SWAP3 POP DUP3 PUSH2 0x368 JUMPI PUSH2 0x367 PUSH2 0x400 JUMP JUMPDEST JUMPDEST DUP3 DUP3 DIV SWAP1 POP SWAP3 SWAP2 POP POP JUMP JUMPDEST PUSH1 0x0 PUSH2 0x37E DUP3 PUSH2 0x3B1 JUMP JUMPDEST SWAP2 POP PUSH2 0x389 DUP4 PUSH2 0x3B1 JUMP JUMPDEST SWAP3 POP DUP3 DUP3 LT ISZERO PUSH2 0x39C JUMPI PUSH2 0x39B PUSH2 0x3D1 JUMP JUMPDEST JUMPDEST DUP3 DUP3 SUB SWAP1 POP SWAP3 SWAP2 POP POP JUMP JUMPDEST PUSH1 0x0 DUP2 SWAP1 POP SWAP2 SWAP1 POP JUMP JUMPDEST PUSH1 0x0 DUP2 SWAP1 POP SWAP2 SWAP1 POP JUMP JUMPDEST PUSH1 0x0 PUSH10 0xFFFFFFFFFFFFFFFFFFFF DUP3 AND SWAP1 POP SWAP2 SWAP1 POP JUMP JUMPDEST PUSH32 0x4E487B7100000000000000000000000000000000000000000000000000000000 PUSH1 0x0 MSTORE PUSH1 0x11 PUSH1 0x4 MSTORE PUSH1 0x24 PUSH1 0x0 REVERT JUMPDEST PUSH32 0x4E487B7100000000000000000000000000000000000000000000000000000000 PUSH1 0x0 MSTORE PUSH1 0x12 PUSH1 0x4 MSTORE PUSH1 0x24 PUSH1 0x0 REVERT JUMPDEST PUSH1 0x0 DUP1 REVERT JUMPDEST PUSH2 0x43D DUP2 PUSH2 0x3A7 JUMP JUMPDEST DUP2 EQ PUSH2 0x448 JUMPI PUSH1 0x0 DUP1 REVERT JUMPDEST POP JUMP JUMPDEST PUSH2 0x454 DUP2 PUSH2 0x3B1 JUMP JUMPDEST DUP2 EQ PUSH2 0x45F JUMPI PUSH1 0x0 DUP1 REVERT JUMPDEST POP JUMP JUMPDEST PUSH2 0x46B DUP2 PUSH2 0x3BB JUMP JUMPDEST DUP2 EQ PUSH2 0x476 JUMPI PUSH1 0x0 DUP1 REVERT JUMPDEST POP JUMP INVALID LOG2 PUSH5 0x6970667358 0x22 SLT KECCAK256 DUP15 LOG0 LOG3 0xCA DIV 0xCC PUSH12 0x1CE56AEE32050340B5C405E7 0x2F 0x5F 0x4F PUSH25 0x70A9038979C25DE1A764736F6C634300080700330000000000 "
		},
		"gasEstimates": {
			"creation": {
				"codeDepositCost": "239800",
				"executionCost": "46662",
				"totalCost": "286462"
			},
			"external": {
				"getLatestPrice()": "infinite",
				"payout()": "2429",
				"payout20dollar()": "infinite",
				"rewardPool()": "2451"
			}
		},
		"methodIdentifiers": {
			"getLatestPrice()": "8e15f473",
			"payout()": "63bd1d4a",
			"payout20dollar()": "557de310",
			"rewardPool()": "66666aa9"
		}
	},
	"abi": [
		{
			"inputs": [],
			"stateMutability": "nonpayable",
			"type": "constructor"
		},
		{
			"anonymous": false,
			"inputs": [
				{
					"indexed": false,
					"internalType": "uint256",
					"name": "_currentPrice",
					"type": "uint256"
				},
				{
					"indexed": false,
					"internalType": "uint256",
					"name": "_payout",
					"type": "uint256"
				},
				{
					"indexed": false,
					"internalType": "uint256",
					"name": "_rewardPool",
					"type": "uint256"
				}
			],
			"name": "info",
			"type": "event"
		},
		{
			"inputs": [],
			"name": "getLatestPrice",
			"outputs": [
				{
					"internalType": "int256",
					"name": "",
					"type": "int256"
				}
			],
			"stateMutability": "view",
			"type": "function"
		},
		{
			"inputs": [],
			"name": "payout",
			"outputs": [
				{
					"internalType": "uint256",
					"name": "",
					"type": "uint256"
				}
			],
			"stateMutability": "view",
			"type": "function"
		},
		{
			"inputs": [],
			"name": "payout20dollar",
			"outputs": [],
			"stateMutability": "nonpayable",
			"type": "function"
		},
		{
			"inputs": [],
			"name": "rewardPool",
			"outputs": [
				{
					"internalType": "uint256",
					"name": "",
					"type": "uint256"
				}
			],
			"stateMutability": "view",
			"type": "function"
		}
	]
}